{
  "contractName": "MicroFinance",
  "abi": [
    {
      "constant": true,
      "inputs": [
        {
          "internalType": "uint256",
          "name": "",
          "type": "uint256"
        }
      ],
      "name": "lenderAccts",
      "outputs": [
        {
          "internalType": "address",
          "name": "",
          "type": "address"
        }
      ],
      "payable": false,
      "stateMutability": "view",
      "type": "function"
    },
    {
      "constant": false,
      "inputs": [
        {
          "internalType": "uint256",
          "name": "loan",
          "type": "uint256"
        }
      ],
      "name": "loanRequest",
      "outputs": [],
      "payable": false,
      "stateMutability": "nonpayable",
      "type": "function"
    },
    {
      "constant": false,
      "inputs": [],
      "name": "changeLoanRequestStatus",
      "outputs": [],
      "payable": false,
      "stateMutability": "nonpayable",
      "type": "function"
    },
    {
      "constant": true,
      "inputs": [],
      "name": "getLoanRequestStatus",
      "outputs": [
        {
          "internalType": "bool",
          "name": "",
          "type": "bool"
        }
      ],
      "payable": false,
      "stateMutability": "view",
      "type": "function"
    },
    {
      "constant": false,
      "inputs": [
        {
          "internalType": "address",
          "name": "to",
          "type": "address"
        }
      ],
      "name": "fund",
      "outputs": [],
      "payable": true,
      "stateMutability": "payable",
      "type": "function"
    },
    {
      "constant": true,
      "inputs": [
        {
          "internalType": "address",
          "name": "to",
          "type": "address"
        }
      ],
      "name": "getRequestedValue",
      "outputs": [
        {
          "internalType": "uint256",
          "name": "",
          "type": "uint256"
        }
      ],
      "payable": false,
      "stateMutability": "view",
      "type": "function"
    },
    {
      "constant": true,
      "inputs": [
        {
          "internalType": "address",
          "name": "to",
          "type": "address"
        }
      ],
      "name": "getFundedValue",
      "outputs": [
        {
          "internalType": "uint256",
          "name": "",
          "type": "uint256"
        }
      ],
      "payable": false,
      "stateMutability": "view",
      "type": "function"
    },
    {
      "constant": true,
      "inputs": [
        {
          "internalType": "address",
          "name": "to",
          "type": "address"
        }
      ],
      "name": "getStatusRequested",
      "outputs": [
        {
          "internalType": "bool",
          "name": "",
          "type": "bool"
        }
      ],
      "payable": false,
      "stateMutability": "view",
      "type": "function"
    },
    {
      "constant": false,
      "inputs": [
        {
          "internalType": "address",
          "name": "to",
          "type": "address"
        }
      ],
      "name": "payBack",
      "outputs": [],
      "payable": true,
      "stateMutability": "payable",
      "type": "function"
    },
    {
      "constant": true,
      "inputs": [],
      "name": "getLenderWallet",
      "outputs": [
        {
          "internalType": "uint256",
          "name": "",
          "type": "uint256"
        }
      ],
      "payable": false,
      "stateMutability": "view",
      "type": "function"
    },
    {
      "constant": true,
      "inputs": [],
      "name": "getLoannerWallet",
      "outputs": [
        {
          "internalType": "uint256",
          "name": "",
          "type": "uint256"
        }
      ],
      "payable": false,
      "stateMutability": "view",
      "type": "function"
    },
    {
      "constant": false,
      "inputs": [],
      "name": "withDrawLenders",
      "outputs": [],
      "payable": false,
      "stateMutability": "nonpayable",
      "type": "function"
    },
    {
      "constant": false,
      "inputs": [],
      "name": "withDrawLoaners",
      "outputs": [],
      "payable": false,
      "stateMutability": "nonpayable",
      "type": "function"
    },
    {
      "constant": true,
      "inputs": [],
      "name": "countLender",
      "outputs": [
        {
          "internalType": "uint256",
          "name": "",
          "type": "uint256"
        }
      ],
      "payable": false,
      "stateMutability": "view",
      "type": "function"
    }
  ],
  "bytecode": "0x608060405234801561001057600080fd5b5061192f806100206000396000f3fe6080604052600436106100dd5760003560e01c80636293fd1e1161007f578063b935850911610059578063b935850914610324578063c54c74cd1461034f578063c59028db1461037a578063fe673c11146103df576100dd565b80636293fd1e1461029a578063872161dd146102de578063b73b4079146102f5576100dd565b80633e3a643b116100bb5780633e3a643b146102065780634e4a47a01461021d5780635034dcb4146102485780635db50a7a14610283576100dd565b8063060a83ec146100e2578063230244081461015d578063256b8e06146101a1575b600080fd5b3480156100ee57600080fd5b5061011b6004803603602081101561010557600080fd5b8101908080359060200190929190505050610448565b604051808273ffffffffffffffffffffffffffffffffffffffff1673ffffffffffffffffffffffffffffffffffffffff16815260200191505060405180910390f35b61019f6004803603602081101561017357600080fd5b81019080803573ffffffffffffffffffffffffffffffffffffffff169060200190929190505050610484565b005b3480156101ad57600080fd5b506101f0600480360360208110156101c457600080fd5b81019080803573ffffffffffffffffffffffffffffffffffffffff169060200190929190505050610945565b6040518082815260200191505060405180910390f35b34801561021257600080fd5b5061021b610990565b005b34801561022957600080fd5b50610232610b8b565b6040518082815260200191505060405180910390f35b34801561025457600080fd5b506102816004803603602081101561026b57600080fd5b8101908080359060200190929190505050610bd2565b005b34801561028f57600080fd5b50610298610d79565b005b6102dc600480360360208110156102b057600080fd5b81019080803573ffffffffffffffffffffffffffffffffffffffff169060200190929190505050610eda565b005b3480156102ea57600080fd5b506102f36112c6565b005b34801561030157600080fd5b5061030a611416565b604051808215151515815260200191505060405180910390f35b34801561033057600080fd5b5061033961146c565b6040518082815260200191505060405180910390f35b34801561035b57600080fd5b50610364611479565b6040518082815260200191505060405180910390f35b34801561038657600080fd5b506103c96004803603602081101561039d57600080fd5b81019080803573ffffffffffffffffffffffffffffffffffffffff1690602001909291905050506114c0565b6040518082815260200191505060405180910390f35b3480156103eb57600080fd5b5061042e6004803603602081101561040257600080fd5b81019080803573ffffffffffffffffffffffffffffffffffffffff16906020019092919050505061150b565b604051808215151515815260200191505060405180910390f35b6004818154811061045557fe5b906000526020600020016000915054906101000a900473ffffffffffffffffffffffffffffffffffffffff1681565b600034116104fa576040517f08c379a00000000000000000000000000000000000000000000000000000000081526004018080602001828103825260078152602001807f302076616c75650000000000000000000000000000000000000000000000000081525060200191505060405180910390fd5b346000808373ffffffffffffffffffffffffffffffffffffffff1673ffffffffffffffffffffffffffffffffffffffff168152602001908152602001600020600101546000808473ffffffffffffffffffffffffffffffffffffffff1673ffffffffffffffffffffffffffffffffffffffff168152602001908152602001600020600001540310156105f4576040517f08c379a000000000000000000000000000000000000000000000000000000000815260040180806020018281038252600f8152602001807f6e6f7420656e6f7567682066756e64000000000000000000000000000000000081525060200191505060405180910390fd5b600115156000808373ffffffffffffffffffffffffffffffffffffffff1673ffffffffffffffffffffffffffffffffffffffff16815260200190815260200160002060020160009054906101000a900460ff1615151461069f576040517f08c379a00000000000000000000000000000000000000000000000000000000081526004018080602001828103825260228152602001806118d96022913960400191505060405180910390fd5b6106f134600160008473ffffffffffffffffffffffffffffffffffffffff1673ffffffffffffffffffffffffffffffffffffffff1681526020019081526020016000205461156390919063ffffffff16565b600160008373ffffffffffffffffffffffffffffffffffffffff1673ffffffffffffffffffffffffffffffffffffffff16815260200190815260200160002081905550610788346000808473ffffffffffffffffffffffffffffffffffffffff1673ffffffffffffffffffffffffffffffffffffffff1681526020019081526020016000206001015461156390919063ffffffff16565b6000808373ffffffffffffffffffffffffffffffffffffffff1673ffffffffffffffffffffffffffffffffffffffff1681526020019081526020016000206001018190555061085c34600360008473ffffffffffffffffffffffffffffffffffffffff1673ffffffffffffffffffffffffffffffffffffffff16815260200190815260200160002060003373ffffffffffffffffffffffffffffffffffffffff1673ffffffffffffffffffffffffffffffffffffffff1681526020019081526020016000205461156390919063ffffffff16565b600360008373ffffffffffffffffffffffffffffffffffffffff1673ffffffffffffffffffffffffffffffffffffffff16815260200190815260200160002060003373ffffffffffffffffffffffffffffffffffffffff1673ffffffffffffffffffffffffffffffffffffffff1681526020019081526020016000208190555060043390806001815401808255809150509060018203906000526020600020016000909192909190916101000a81548173ffffffffffffffffffffffffffffffffffffffff021916908373ffffffffffffffffffffffffffffffffffffffff1602179055505050565b60008060008373ffffffffffffffffffffffffffffffffffffffff1673ffffffffffffffffffffffffffffffffffffffff168152602001908152602001600020600101549050919050565b600015156000803373ffffffffffffffffffffffffffffffffffffffff1673ffffffffffffffffffffffffffffffffffffffff16815260200190815260200160002060020160009054906101000a900460ff16151514610a3b576040517f08c379a000000000000000000000000000000000000000000000000000000000815260040180806020018281038252602c8152602001806118ad602c913960400191505060405180910390fd5b60003390506000600160008373ffffffffffffffffffffffffffffffffffffffff1673ffffffffffffffffffffffffffffffffffffffff1681526020019081526020016000205490506000811415610afb576040517f08c379a00000000000000000000000000000000000000000000000000000000081526004018080602001828103825260138152602001807f6e6f7468696e6720746f2077697468647261770000000000000000000000000081525060200191505060405180910390fd5b6000600160008473ffffffffffffffffffffffffffffffffffffffff1673ffffffffffffffffffffffffffffffffffffffff168152602001908152602001600020819055508173ffffffffffffffffffffffffffffffffffffffff166108fc829081150290604051600060405180830381858888f19350505050158015610b86573d6000803e3d6000fd5b505050565b6000600260003373ffffffffffffffffffffffffffffffffffffffff1673ffffffffffffffffffffffffffffffffffffffff16815260200190815260200160002054905090565b671bc16d674ec80000811115610c2b576040517f08c379a0000000000000000000000000000000000000000000000000000000008152600401808060200182810382526000815260200160200191505060405180910390fd5b60008060003373ffffffffffffffffffffffffffffffffffffffff1673ffffffffffffffffffffffffffffffffffffffff1681526020019081526020016000206001015414610ce2576040517f08c379a00000000000000000000000000000000000000000000000000000000081526004018080602001828103825260188152602001807f796f75206861766520746f20706179206174206669727374000000000000000081525060200191505060405180910390fd5b604051806060016040528082815260200160008152602001600115158152506000803373ffffffffffffffffffffffffffffffffffffffff1673ffffffffffffffffffffffffffffffffffffffff168152602001908152602001600020600082015181600001556020820151816001015560408201518160020160006101000a81548160ff02191690831515021790555090505050565b60008060003373ffffffffffffffffffffffffffffffffffffffff1673ffffffffffffffffffffffffffffffffffffffff1681526020019081526020016000206000015411610e30576040517f08c379a00000000000000000000000000000000000000000000000000000000081526004018080602001828103825260138152602001807f5468657265206973206e6f20726571756573740000000000000000000000000081525060200191505060405180910390fd5b6000803373ffffffffffffffffffffffffffffffffffffffff1673ffffffffffffffffffffffffffffffffffffffff16815260200190815260200160002060020160009054906101000a900460ff16156000803373ffffffffffffffffffffffffffffffffffffffff1673ffffffffffffffffffffffffffffffffffffffff16815260200190815260200160002060020160006101000a81548160ff021916908315150217905550565b6000600360003373ffffffffffffffffffffffffffffffffffffffff1673ffffffffffffffffffffffffffffffffffffffff16815260200190815260200160002060008373ffffffffffffffffffffffffffffffffffffffff1673ffffffffffffffffffffffffffffffffffffffff16815260200190815260200160002054905034611011826110036002610ff56064600360003373ffffffffffffffffffffffffffffffffffffffff1673ffffffffffffffffffffffffffffffffffffffff16815260200190815260200160002060008a73ffffffffffffffffffffffffffffffffffffffff1673ffffffffffffffffffffffffffffffffffffffff168152602001908152602001600020546115eb90919063ffffffff16565b61163590919063ffffffff16565b61156390919063ffffffff16565b1015611085576040517f08c379a00000000000000000000000000000000000000000000000000000000081526004018080602001828103825260108152602001807f6e6f7420656e6f756768206d6f6e65790000000000000000000000000000000081525060200191505060405180910390fd5b61111434600360003373ffffffffffffffffffffffffffffffffffffffff1673ffffffffffffffffffffffffffffffffffffffff16815260200190815260200160002060008573ffffffffffffffffffffffffffffffffffffffff1673ffffffffffffffffffffffffffffffffffffffff168152602001908152602001600020546116bb90919063ffffffff16565b600360003373ffffffffffffffffffffffffffffffffffffffff1673ffffffffffffffffffffffffffffffffffffffff16815260200190815260200160002060008473ffffffffffffffffffffffffffffffffffffffff1673ffffffffffffffffffffffffffffffffffffffff168152602001908152602001600020819055506111e634600260008573ffffffffffffffffffffffffffffffffffffffff1673ffffffffffffffffffffffffffffffffffffffff1681526020019081526020016000205461156390919063ffffffff16565b600260008473ffffffffffffffffffffffffffffffffffffffff1673ffffffffffffffffffffffffffffffffffffffff1681526020019081526020016000208190555061127d346000803373ffffffffffffffffffffffffffffffffffffffff1673ffffffffffffffffffffffffffffffffffffffff168152602001908152602001600020600101546116bb90919063ffffffff16565b6000803373ffffffffffffffffffffffffffffffffffffffff1673ffffffffffffffffffffffffffffffffffffffff168152602001908152602001600020600101819055505050565b60003390506000600260008373ffffffffffffffffffffffffffffffffffffffff1673ffffffffffffffffffffffffffffffffffffffff1681526020019081526020016000205490506000811415611386576040517f08c379a00000000000000000000000000000000000000000000000000000000081526004018080602001828103825260138152602001807f6e6f7468696e6720746f2077697468647261770000000000000000000000000081525060200191505060405180910390fd5b6000600260008473ffffffffffffffffffffffffffffffffffffffff1673ffffffffffffffffffffffffffffffffffffffff168152602001908152602001600020819055508173ffffffffffffffffffffffffffffffffffffffff166108fc829081150290604051600060405180830381858888f19350505050158015611411573d6000803e3d6000fd5b505050565b60008060003373ffffffffffffffffffffffffffffffffffffffff1673ffffffffffffffffffffffffffffffffffffffff16815260200190815260200160002060020160009054906101000a900460ff16905090565b6000600480549050905090565b6000600160003373ffffffffffffffffffffffffffffffffffffffff1673ffffffffffffffffffffffffffffffffffffffff16815260200190815260200160002054905090565b60008060008373ffffffffffffffffffffffffffffffffffffffff1673ffffffffffffffffffffffffffffffffffffffff168152602001908152602001600020600001549050919050565b60008060008373ffffffffffffffffffffffffffffffffffffffff1673ffffffffffffffffffffffffffffffffffffffff16815260200190815260200160002060020160009054906101000a900460ff169050919050565b6000808284019050838110156115e1576040517f08c379a000000000000000000000000000000000000000000000000000000000815260040180806020018281038252601b8152602001807f536166654d6174683a206164646974696f6e206f766572666c6f77000000000081525060200191505060405180910390fd5b8091505092915050565b600061162d83836040518060400160405280601a81526020017f536166654d6174683a206469766973696f6e206279207a65726f000000000000815250611705565b905092915050565b60008083141561164857600090506116b5565b600082840290508284828161165957fe5b04146116b0576040517f08c379a000000000000000000000000000000000000000000000000000000000815260040180806020018281038252602181526020018061188c6021913960400191505060405180910390fd5b809150505b92915050565b60006116fd83836040518060400160405280601e81526020017f536166654d6174683a207375627472616374696f6e206f766572666c6f7700008152506117cb565b905092915050565b600080831182906117b1576040517f08c379a00000000000000000000000000000000000000000000000000000000081526004018080602001828103825283818151815260200191508051906020019080838360005b8381101561177657808201518184015260208101905061175b565b50505050905090810190601f1680156117a35780820380516001836020036101000a031916815260200191505b509250505060405180910390fd5b5060008385816117bd57fe5b049050809150509392505050565b6000838311158290611878576040517f08c379a00000000000000000000000000000000000000000000000000000000081526004018080602001828103825283818151815260200191508051906020019080838360005b8381101561183d578082015181840152602081019050611822565b50505050905090810190601f16801561186a5780820380516001836020036101000a031916815260200191505b509250505060405180910390fd5b506000838503905080915050939250505056fe536166654d6174683a206d756c7469706c69636174696f6e206f766572666c6f776368616e67652073746174757320746f2066616c736520746f20776974686472617720746865206d6f6e6579746865207265717565737420646f206e6f742065786365707420616e79206d6f7265a265627a7a72315820e46e3904f8e5444bd1f576bf42944f7ee4fe6e099b1636d4af67071f810e685064736f6c63430005100032",
  "source": "pragma solidity ^0.5.9;\nimport '@openzeppelin/contracts/math/SafeMath.sol';\n\ncontract MicroFinance {\n    \n    using SafeMath for uint;\n     \n    struct Loaner{\n        uint loan;\n    }\n    struct Request {\n        uint value;\n        uint fundedValue;\n        bool status;\n    }\n    mapping(address => Request) requested;\n    mapping(address => uint) loanerWallet;\n    mapping(address => uint) lenderWallet;\n    mapping(address => mapping(address => uint)) loaners;\n    address[] public lenderAccts;\n    \n    function loanRequest(uint loan) public {\n        require(loan <= 2 ether,'');\n        require(requested[msg.sender].fundedValue == 0, 'you have to pay at first');\n        \n        requested[msg.sender] = Request(loan ,0 ,true);\n    }\n    function changeLoanRequestStatus() public {\n        require(requested[msg.sender].value > 0, 'There is no request');\n        requested[msg.sender].status = !requested[msg.sender].status;\n    }\n    function getLoanRequestStatus() public view returns(bool) {\n        return requested[msg.sender].status;\n    }\n    function fund(address to) public payable{\n        require(msg.value > 0, '0 value');\n        require((requested[to].value - requested[to].fundedValue) >= msg.value,\"not enough fund\");\n        require(requested[to].status == true,\"the request do not except any more\");\n        \n        loanerWallet[to] = loanerWallet[to].add(msg.value);\n        requested[to].fundedValue = requested[to].fundedValue.add(msg.value);\n        loaners[to][msg.sender] = loaners[to][msg.sender].add(msg.value);\n        lenderAccts.push(msg.sender);\n    }\n    function getRequestedValue(address to) public view returns(uint){\n        return requested[to].value;\n    }\n    function getFundedValue(address to) public view returns(uint){\n        return requested[to].fundedValue;\n    }\n    function getStatusRequested(address to) public view returns(bool){\n        return requested[to].status;\n    }\n    function payBack(address to) public payable{\n        uint money = loaners[msg.sender][to];\n        require(loaners[msg.sender][to].div(100).mul(2).add(money) >= msg.value,\"not enough money\");\n\n        loaners[msg.sender][to] = loaners[msg.sender][to].sub(msg.value);\n        lenderWallet[to] = lenderWallet[to].add(msg.value);\n        requested[msg.sender].fundedValue = requested[msg.sender].fundedValue.sub(msg.value);\n    }\n    function getLenderWallet() public view returns(uint){\n        return lenderWallet[msg.sender];\n    }\n    function getLoannerWallet() public view returns(uint){\n        return loanerWallet[msg.sender];\n    }\n    function withDrawLenders() public {\n        address payable receiver = msg.sender;\n        uint money = lenderWallet[receiver];\n        require(money != 0,\"nothing to withdraw\");\n        lenderWallet[receiver] = 0;\n        receiver.transfer(money);\n    }\n    function withDrawLoaners() public {\n        require(requested[msg.sender].status == false, 'change status to false to withdraw the money');\n        address payable receiver = msg.sender;\n        uint money = loanerWallet[receiver];\n        require(money != 0,\"nothing to withdraw\");\n        loanerWallet[receiver] = 0;\n        receiver.transfer(money);\n    }\n    function countLender() public view returns(uint) {\n        return lenderAccts.length;\n    }\n}",
  "sourcePath": "/Users/furutatomohiro/Documents/Program/GBC/DESIGN_PATTERNS_FOR_BLOCKCHAIN/GBC_DESIGN_PATTERNS_group_assignment/contracts/Microfinance.sol",
  "compiler": {
    "name": "solc",
    "version": "0.5.16+commit.9c3226ce.Emscripten.clang"
  },
  "schemaVersion": "3.0.21",
  "updatedAt": "2020-02-07T03:13:26.149Z",
  "networkType": "ethereum",
  "devdoc": {
    "methods": {}
  },
  "userdoc": {
    "methods": {}
  }
}